{
  "contractName": "EthDonation",
  "abi": [
    {
      "inputs": [],
      "stateMutability": "nonpayable",
      "type": "constructor"
    },
    {
      "anonymous": false,
      "inputs": [
        {
          "indexed": false,
          "internalType": "address",
          "name": "donatorAddress",
          "type": "address"
        },
        {
          "indexed": false,
          "internalType": "uint256",
          "name": "amount",
          "type": "uint256"
        },
        {
          "indexed": false,
          "internalType": "uint256",
          "name": "projectId",
          "type": "uint256"
        }
      ],
      "name": "LogDonationMade",
      "type": "event"
    },
    {
      "anonymous": false,
      "inputs": [
        {
          "indexed": false,
          "internalType": "uint256",
          "name": "projectId",
          "type": "uint256"
        },
        {
          "indexed": false,
          "internalType": "uint256",
          "name": "expenseId",
          "type": "uint256"
        },
        {
          "indexed": false,
          "internalType": "uint256",
          "name": "allocation",
          "type": "uint256"
        }
      ],
      "name": "LogExpenseAllocated",
      "type": "event"
    },
    {
      "anonymous": false,
      "inputs": [
        {
          "indexed": false,
          "internalType": "uint256",
          "name": "projectId",
          "type": "uint256"
        },
        {
          "indexed": false,
          "internalType": "uint256",
          "name": "expenseId",
          "type": "uint256"
        },
        {
          "indexed": false,
          "internalType": "uint256",
          "name": "allocation",
          "type": "uint256"
        }
      ],
      "name": "LogExpenseAllocationFailure",
      "type": "event"
    },
    {
      "anonymous": false,
      "inputs": [
        {
          "indexed": false,
          "internalType": "uint256",
          "name": "projectId",
          "type": "uint256"
        },
        {
          "indexed": false,
          "internalType": "uint256",
          "name": "expenseId",
          "type": "uint256"
        },
        {
          "indexed": false,
          "internalType": "address",
          "name": "approver",
          "type": "address"
        }
      ],
      "name": "LogExpenseApproved",
      "type": "event"
    },
    {
      "anonymous": false,
      "inputs": [
        {
          "indexed": false,
          "internalType": "uint256",
          "name": "projectId",
          "type": "uint256"
        },
        {
          "indexed": false,
          "internalType": "address",
          "name": "donator",
          "type": "address"
        },
        {
          "indexed": false,
          "internalType": "uint256",
          "name": "amount",
          "type": "uint256"
        }
      ],
      "name": "LogRefund",
      "type": "event"
    },
    {
      "anonymous": false,
      "inputs": [
        {
          "indexed": false,
          "internalType": "uint256",
          "name": "projectId",
          "type": "uint256"
        },
        {
          "indexed": false,
          "internalType": "address",
          "name": "donator",
          "type": "address"
        },
        {
          "indexed": false,
          "internalType": "uint256",
          "name": "amount",
          "type": "uint256"
        }
      ],
      "name": "LogRefundFailure",
      "type": "event"
    },
    {
      "anonymous": false,
      "inputs": [
        {
          "indexed": true,
          "internalType": "address",
          "name": "previousOwner",
          "type": "address"
        },
        {
          "indexed": true,
          "internalType": "address",
          "name": "newOwner",
          "type": "address"
        }
      ],
      "name": "OwnershipTransferred",
      "type": "event"
    },
    {
      "inputs": [],
      "name": "owner",
      "outputs": [
        {
          "internalType": "address",
          "name": "",
          "type": "address"
        }
      ],
      "stateMutability": "view",
      "type": "function"
    },
    {
      "inputs": [],
      "name": "projectCount",
      "outputs": [
        {
          "internalType": "uint256",
          "name": "",
          "type": "uint256"
        }
      ],
      "stateMutability": "view",
      "type": "function"
    },
    {
      "inputs": [
        {
          "internalType": "uint256",
          "name": "",
          "type": "uint256"
        }
      ],
      "name": "projects",
      "outputs": [
        {
          "internalType": "address payable",
          "name": "founder",
          "type": "address"
        },
        {
          "internalType": "string",
          "name": "title",
          "type": "string"
        },
        {
          "internalType": "string",
          "name": "description",
          "type": "string"
        },
        {
          "internalType": "uint256",
          "name": "endTime",
          "type": "uint256"
        },
        {
          "internalType": "uint256",
          "name": "amountFunded",
          "type": "uint256"
        },
        {
          "internalType": "uint256",
          "name": "amountAllocated",
          "type": "uint256"
        },
        {
          "internalType": "uint256",
          "name": "expenseCount",
          "type": "uint256"
        }
      ],
      "stateMutability": "view",
      "type": "function"
    },
    {
      "inputs": [],
      "name": "renounceOwnership",
      "outputs": [],
      "stateMutability": "nonpayable",
      "type": "function"
    },
    {
      "inputs": [
        {
          "internalType": "address",
          "name": "newOwner",
          "type": "address"
        }
      ],
      "name": "transferOwnership",
      "outputs": [],
      "stateMutability": "nonpayable",
      "type": "function"
    },
    {
      "inputs": [
        {
          "internalType": "string",
          "name": "_title",
          "type": "string"
        },
        {
          "internalType": "string",
          "name": "_description",
          "type": "string"
        },
        {
          "internalType": "uint256",
          "name": "_endTime",
          "type": "uint256"
        }
      ],
      "name": "createProject",
      "outputs": [
        {
          "internalType": "uint256",
          "name": "",
          "type": "uint256"
        }
      ],
      "stateMutability": "nonpayable",
      "type": "function"
    },
    {
      "inputs": [
        {
          "internalType": "uint256",
          "name": "projectId",
          "type": "uint256"
        }
      ],
      "name": "donate",
      "outputs": [],
      "stateMutability": "payable",
      "type": "function"
    },
    {
      "inputs": [
        {
          "internalType": "uint256",
          "name": "projectId",
          "type": "uint256"
        }
      ],
      "name": "refund",
      "outputs": [],
      "stateMutability": "nonpayable",
      "type": "function"
    },
    {
      "inputs": [
        {
          "internalType": "uint256",
          "name": "projectId",
          "type": "uint256"
        },
        {
          "internalType": "uint256",
          "name": "allocation",
          "type": "uint256"
        },
        {
          "internalType": "string",
          "name": "description",
          "type": "string"
        }
      ],
      "name": "createExpense",
      "outputs": [
        {
          "internalType": "uint256",
          "name": "",
          "type": "uint256"
        }
      ],
      "stateMutability": "nonpayable",
      "type": "function"
    },
    {
      "inputs": [
        {
          "internalType": "uint256",
          "name": "projectId",
          "type": "uint256"
        }
      ],
      "name": "getExpenseCount",
      "outputs": [
        {
          "internalType": "uint256",
          "name": "",
          "type": "uint256"
        }
      ],
      "stateMutability": "view",
      "type": "function"
    },
    {
      "inputs": [
        {
          "internalType": "uint256",
          "name": "projectId",
          "type": "uint256"
        },
        {
          "internalType": "uint256",
          "name": "expenseId",
          "type": "uint256"
        }
      ],
      "name": "getExpense",
      "outputs": [
        {
          "internalType": "string",
          "name": "",
          "type": "string"
        },
        {
          "internalType": "uint256",
          "name": "",
          "type": "uint256"
        },
        {
          "internalType": "uint256",
          "name": "",
          "type": "uint256"
        },
        {
          "internalType": "uint256",
          "name": "",
          "type": "uint256"
        }
      ],
      "stateMutability": "view",
      "type": "function"
    },
    {
      "inputs": [
        {
          "internalType": "uint256",
          "name": "projectId",
          "type": "uint256"
        }
      ],
      "name": "getMyDonation",
      "outputs": [
        {
          "internalType": "uint256",
          "name": "",
          "type": "uint256"
        },
        {
          "internalType": "uint256",
          "name": "",
          "type": "uint256"
        }
      ],
      "stateMutability": "view",
      "type": "function"
    },
    {
      "inputs": [
        {
          "internalType": "uint256",
          "name": "projectId",
          "type": "uint256"
        }
      ],
      "name": "getDonations",
      "outputs": [
        {
          "internalType": "address[]",
          "name": "",
          "type": "address[]"
        },
        {
          "internalType": "uint256[]",
          "name": "",
          "type": "uint256[]"
        },
        {
          "internalType": "uint256[]",
          "name": "",
          "type": "uint256[]"
        }
      ],
      "stateMutability": "view",
      "type": "function"
    },
    {
      "inputs": [
        {
          "internalType": "uint256",
          "name": "projectId",
          "type": "uint256"
        },
        {
          "internalType": "uint256",
          "name": "expenseId",
          "type": "uint256"
        }
      ],
      "name": "approveExpense",
      "outputs": [],
      "stateMutability": "nonpayable",
      "type": "function"
    }
  ],
  "bytecode": "0x608060405234801561001057600080fd5b5061002d61002261003260201b60201c565b61003a60201b60201c565b6100fe565b600033905090565b60008060009054906101000a900473ffffffffffffffffffffffffffffffffffffffff169050816000806101000a81548173ffffffffffffffffffffffffffffffffffffffff021916908373ffffffffffffffffffffffffffffffffffffffff1602179055508173ffffffffffffffffffffffffffffffffffffffff168173ffffffffffffffffffffffffffffffffffffffff167f8be0079c531659141344cd1fd0a4f28419497f9722a3daafe3b4186f6b6457e060405160405180910390a35050565b61243f806200010e6000396000f3fe6080604052600436106100dd5760003560e01c80638da5cb5b1161007f578063ecbce5ac11610059578063ecbce5ac146102dd578063f14faf6f1461031a578063f2fde38b14610336578063f80db32d1461035f576100dd565b80638da5cb5b146102355780638ed56d8b14610260578063c18c1876146102a0576100dd565b806336fbad26116100bb57806336fbad261461018b578063596d9ce2146101b6578063715018a6146101f557806381cf768c1461020c576100dd565b8063107046bd146100e257806323c5544814610125578063278ecde114610162575b600080fd5b3480156100ee57600080fd5b50610109600480360381019061010491906118cd565b61039d565b60405161011c97969594939291906119e3565b60405180910390f35b34801561013157600080fd5b5061014c60048036038101906101479190611b95565b61050f565b6040516101599190611c20565b60405180910390f35b34801561016e57600080fd5b50610189600480360381019061018491906118cd565b6105da565b005b34801561019757600080fd5b506101a0610862565b6040516101ad9190611c20565b60405180910390f35b3480156101c257600080fd5b506101dd60048036038101906101d891906118cd565b610868565b6040516101ec93929190611dc9565b60405180910390f35b34801561020157600080fd5b5061020a610b23565b005b34801561021857600080fd5b50610233600480360381019061022e9190611e15565b610bab565b005b34801561024157600080fd5b5061024a610fd7565b6040516102579190611e64565b60405180910390f35b34801561026c57600080fd5b5061028760048036038101906102829190611e15565b611000565b6040516102979493929190611e7f565b60405180910390f35b3480156102ac57600080fd5b506102c760048036038101906102c291906118cd565b611185565b6040516102d49190611c20565b60405180910390f35b3480156102e957600080fd5b5061030460048036038101906102ff9190611ecb565b6111c1565b6040516103119190611c20565b60405180910390f35b610334600480360381019061032f91906118cd565b611317565b005b34801561034257600080fd5b5061035d60048036038101906103589190611f66565b6114a6565b005b34801561036b57600080fd5b50610386600480360381019061038191906118cd565b61159e565b604051610394929190611f93565b60405180910390f35b60026020528060005260406000206000915090508060000160009054906101000a900473ffffffffffffffffffffffffffffffffffffffff16908060010180546103e690611feb565b80601f016020809104026020016040519081016040528092919081815260200182805461041290611feb565b801561045f5780601f106104345761010080835404028352916020019161045f565b820191906000526020600020905b81548152906001019060200180831161044257829003601f168201915b50505050509080600201805461047490611feb565b80601f01602080910402602001604051908101604052809291908181526020018280546104a090611feb565b80156104ed5780601f106104c2576101008083540402835291602001916104ed565b820191906000526020600020905b8154815290600101906020018083116104d057829003601f168201915b5050505050908060030154908060040154908060050154908060060154905087565b600042821161051d57600080fd5b600180600082825461052f919061204c565b9250508190555060006002600060015481526020019081526020016000209050338160000160006101000a81548173ffffffffffffffffffffffffffffffffffffffff021916908373ffffffffffffffffffffffffffffffffffffffff160217905550848160010190805190602001906105aa9291906117e0565b50838160020190805190602001906105c39291906117e0565b508281600301819055506001549150509392505050565b600181101580156105ed57506001548111155b6105f657600080fd5b4260026000838152602001908152602001600020600301541061061857600080fd5b60006002600083815260200190815260200160002060080160003373ffffffffffffffffffffffffffffffffffffffff1673ffffffffffffffffffffffffffffffffffffffff168152602001908152602001600020600101541161067b57600080fd5b600060026000838152602001908152602001600020905060008160080160003373ffffffffffffffffffffffffffffffffffffffff1673ffffffffffffffffffffffffffffffffffffffff16815260200190815260200160002060010154905060008260080160003373ffffffffffffffffffffffffffffffffffffffff1673ffffffffffffffffffffffffffffffffffffffff16815260200190815260200160002090506000816001018190555060018160020160006101000a81548160ff02191690831515021790555060003373ffffffffffffffffffffffffffffffffffffffff168360405161076d906120d3565b60006040518083038185875af1925050503d80600081146107aa576040519150601f19603f3d011682016040523d82523d6000602084013e6107af565b606091505b5050905080156107f9577fd712b46ccde5e095a18ecd18aed6bf9d83d9263601d1942365932b15f23cd7da8533856040516107ec939291906120e8565b60405180910390a161085b565b7fb3d46fede83b43afa5b259880f99cf559bacfe934a385b0aa79b118737312b5585338560405161082c939291906120e8565b60405180910390a182826001018190555060008260020160006101000a81548160ff0219169083151502179055505b5050505050565b60015481565b60608060606001841015801561088057506001548411155b61088957600080fd5b600060026000868152602001908152602001600020905060008160070180549050905060008167ffffffffffffffff8111156108c8576108c7611a6a565b5b6040519080825280602002602001820160405280156108f65781602001602082028036833780820191505090505b50905060008267ffffffffffffffff81111561091557610914611a6a565b5b6040519080825280602002602001820160405280156109435781602001602082028036833780820191505090505b50905060008367ffffffffffffffff81111561096257610961611a6a565b5b6040519080825280602002602001820160405280156109905781602001602082028036833780820191505090505b50905060005b84811015610b0d5760008660070182815481106109b6576109b561211f565b5b9060005260206000200160009054906101000a900473ffffffffffffffffffffffffffffffffffffffff16905060008760080160008373ffffffffffffffffffffffffffffffffffffffff1673ffffffffffffffffffffffffffffffffffffffff16815260200190815260200160002060405180606001604052908160008201548152602001600182015481526020016002820160009054906101000a900460ff161515151581525050905081868481518110610a7657610a7561211f565b5b602002602001019073ffffffffffffffffffffffffffffffffffffffff16908173ffffffffffffffffffffffffffffffffffffffff16815250508060000151858481518110610ac857610ac761211f565b5b6020026020010181815250508060200151848481518110610aec57610aeb61211f565b5b60200260200101818152505050508080610b059061214e565b915050610996565b5082828297509750975050505050509193909250565b610b2b6116fb565b73ffffffffffffffffffffffffffffffffffffffff16610b49610fd7565b73ffffffffffffffffffffffffffffffffffffffff1614610b9f576040517f08c379a0000000000000000000000000000000000000000000000000000000008152600401610b96906121e3565b60405180910390fd5b610ba96000611703565b565b60018210158015610bbe57506001548211155b610bc757600080fd5b60006002600084815260200190815260200160002060080160003373ffffffffffffffffffffffffffffffffffffffff1673ffffffffffffffffffffffffffffffffffffffff1681526020019081526020016000206001015411610c2a57600080fd5b60018110158015610c51575060026000838152602001908152602001600020600601548111155b610c5a57600080fd5b60006001811115610c6e57610c6d612203565b5b60026000848152602001908152602001600020600901600083815260200190815260200160002060030160009054906101000a900460ff166001811115610cb857610cb7612203565b5b14610cc257600080fd5b6000600260008481526020019081526020016000209050600081600901600084815260200190815260200160002090506000610d5582600201548360010154610d0b9190612232565b8460080160003373ffffffffffffffffffffffffffffffffffffffff1673ffffffffffffffffffffffffffffffffffffffff168152602001908152602001600020600101546117c7565b905080826002016000828254610d6b919061204c565b92505081905550808360080160003373ffffffffffffffffffffffffffffffffffffffff1673ffffffffffffffffffffffffffffffffffffffff1681526020019081526020016000206001016000828254610dc69190612232565b925050819055507f6dd42a5b0c3cec32dc181f41a27766cfcaad790546250d30922b585173782f56858533604051610e0093929190612266565b60405180910390a1816001015482600201541415610fd05760018260030160006101000a81548160ff02191690836001811115610e4057610e3f612203565b5b02179055508160010154836005016000828254610e5d919061204c565b9250508190555060008360000160009054906101000a900473ffffffffffffffffffffffffffffffffffffffff1673ffffffffffffffffffffffffffffffffffffffff168360010154604051610eb2906120d3565b60006040518083038185875af1925050503d8060008114610eef576040519150601f19603f3d011682016040523d82523d6000602084013e610ef4565b606091505b505090508015610f42577f230de2370eb78ca31e3791f47cf3fa6d25a5fd71ea29195f1784a0c6e4d792d386868560010154604051610f359392919061229d565b60405180910390a1610fce565b7ffdb81aeea22839302a4949704ff5d89991c529a6d19523c75d6e3339137a275486868560010154604051610f799392919061229d565b60405180910390a160008360030160006101000a81548160ff02191690836001811115610fa957610fa8612203565b5b02179055508260010154846005016000828254610fc69190612232565b925050819055505b505b5050505050565b60008060009054906101000a900473ffffffffffffffffffffffffffffffffffffffff16905090565b606060008060006001861015801561101a57506001548611155b61102357600080fd5b6001851015801561104a575060026000878152602001908152602001600020600601548511155b61105357600080fd5b6000600260008881526020019081526020016000206009016000878152602001908152602001600020600101541161108a57600080fd5b6000600260008881526020019081526020016000206009016000878152602001908152602001600020905080600001816001015482600201548360030160009054906101000a900460ff1660018111156110e7576110e6612203565b5b8380546110f390611feb565b80601f016020809104026020016040519081016040528092919081815260200182805461111f90611feb565b801561116c5780601f106111415761010080835404028352916020019161116c565b820191906000526020600020905b81548152906001019060200180831161114f57829003601f168201915b5050505050935094509450945094505092959194509250565b60006001821015801561119a57506001548211155b6111a357600080fd5b60026000838152602001908152602001600020600601549050919050565b60003373ffffffffffffffffffffffffffffffffffffffff166002600086815260200190815260200160002060000160009054906101000a900473ffffffffffffffffffffffffffffffffffffffff1673ffffffffffffffffffffffffffffffffffffffff161461123157600080fd5b6001841015801561124457506001548411155b61124d57600080fd5b6000831161125a57600080fd5b6000600260008681526020019081526020016000209050600060018260060154611284919061204c565b905060008260090160008381526020019081526020016000209050848160000190805190602001906112b79291906117e0565b5085816001018190555060008160030160006101000a81548160ff021916908360018111156112e9576112e8612203565b5b02179055506001836006016000828254611303919061204c565b925050819055508193505050509392505050565b6000341161132457600080fd5b4260026000838152602001908152602001600020600301541161134657600080fd5b600060026000838152602001908152602001600020905034816004016000828254611371919061204c565b9250508190555060008160080160003373ffffffffffffffffffffffffffffffffffffffff1673ffffffffffffffffffffffffffffffffffffffff16815260200190815260200160002090506000816000015414156114305781600701339080600181540180825580915050600190039060005260206000200160009091909190916101000a81548173ffffffffffffffffffffffffffffffffffffffff021916908373ffffffffffffffffffffffffffffffffffffffff1602179055505b34816000016000828254611444919061204c565b925050819055503481600101600082825461145f919061204c565b925050819055507fd794a90b7dc94481097155b3b6aa3ad453ee9530aed35db574dc5c4c6ce93a31333485604051611499939291906122d4565b60405180910390a1505050565b6114ae6116fb565b73ffffffffffffffffffffffffffffffffffffffff166114cc610fd7565b73ffffffffffffffffffffffffffffffffffffffff1614611522576040517f08c379a0000000000000000000000000000000000000000000000000000000008152600401611519906121e3565b60405180910390fd5b600073ffffffffffffffffffffffffffffffffffffffff168173ffffffffffffffffffffffffffffffffffffffff161415611592576040517f08c379a00000000000000000000000000000000000000000000000000000000081526004016115899061237d565b60405180910390fd5b61159b81611703565b50565b600080600183101580156115b457506001548311155b6115bd57600080fd5b60006002600085815260200190815260200160002060080160003373ffffffffffffffffffffffffffffffffffffffff1673ffffffffffffffffffffffffffffffffffffffff1681526020019081526020016000206000015411611656576040517f08c379a000000000000000000000000000000000000000000000000000000000815260040161164d906123e9565b60405180910390fd5b60006002600085815260200190815260200160002060080160003373ffffffffffffffffffffffffffffffffffffffff1673ffffffffffffffffffffffffffffffffffffffff16815260200190815260200160002060405180606001604052908160008201548152602001600182015481526020016002820160009054906101000a900460ff1615151515815250509050806000015181602001519250925050915091565b600033905090565b60008060009054906101000a900473ffffffffffffffffffffffffffffffffffffffff169050816000806101000a81548173ffffffffffffffffffffffffffffffffffffffff021916908373ffffffffffffffffffffffffffffffffffffffff1602179055508173ffffffffffffffffffffffffffffffffffffffff168173ffffffffffffffffffffffffffffffffffffffff167f8be0079c531659141344cd1fd0a4f28419497f9722a3daafe3b4186f6b6457e060405160405180910390a35050565b60008183106117d657816117d8565b825b905092915050565b8280546117ec90611feb565b90600052602060002090601f01602090048101928261180e5760008555611855565b82601f1061182757805160ff1916838001178555611855565b82800160010185558215611855579182015b82811115611854578251825591602001919060010190611839565b5b5090506118629190611866565b5090565b5b8082111561187f576000816000905550600101611867565b5090565b6000604051905090565b600080fd5b600080fd5b6000819050919050565b6118aa81611897565b81146118b557600080fd5b50565b6000813590506118c7816118a1565b92915050565b6000602082840312156118e3576118e261188d565b5b60006118f1848285016118b8565b91505092915050565b600073ffffffffffffffffffffffffffffffffffffffff82169050919050565b6000611925826118fa565b9050919050565b6119358161191a565b82525050565b600081519050919050565b600082825260208201905092915050565b60005b8381101561197557808201518184015260208101905061195a565b83811115611984576000848401525b50505050565b6000601f19601f8301169050919050565b60006119a68261193b565b6119b08185611946565b93506119c0818560208601611957565b6119c98161198a565b840191505092915050565b6119dd81611897565b82525050565b600060e0820190506119f8600083018a61192c565b8181036020830152611a0a818961199b565b90508181036040830152611a1e818861199b565b9050611a2d60608301876119d4565b611a3a60808301866119d4565b611a4760a08301856119d4565b611a5460c08301846119d4565b98975050505050505050565b600080fd5b600080fd5b7f4e487b7100000000000000000000000000000000000000000000000000000000600052604160045260246000fd5b611aa28261198a565b810181811067ffffffffffffffff82111715611ac157611ac0611a6a565b5b80604052505050565b6000611ad4611883565b9050611ae08282611a99565b919050565b600067ffffffffffffffff821115611b0057611aff611a6a565b5b611b098261198a565b9050602081019050919050565b82818337600083830152505050565b6000611b38611b3384611ae5565b611aca565b905082815260208101848484011115611b5457611b53611a65565b5b611b5f848285611b16565b509392505050565b600082601f830112611b7c57611b7b611a60565b5b8135611b8c848260208601611b25565b91505092915050565b600080600060608486031215611bae57611bad61188d565b5b600084013567ffffffffffffffff811115611bcc57611bcb611892565b5b611bd886828701611b67565b935050602084013567ffffffffffffffff811115611bf957611bf8611892565b5b611c0586828701611b67565b9250506040611c16868287016118b8565b9150509250925092565b6000602082019050611c3560008301846119d4565b92915050565b600081519050919050565b600082825260208201905092915050565b6000819050602082019050919050565b6000611c72826118fa565b9050919050565b611c8281611c67565b82525050565b6000611c948383611c79565b60208301905092915050565b6000602082019050919050565b6000611cb882611c3b565b611cc28185611c46565b9350611ccd83611c57565b8060005b83811015611cfe578151611ce58882611c88565b9750611cf083611ca0565b925050600181019050611cd1565b5085935050505092915050565b600081519050919050565b600082825260208201905092915050565b6000819050602082019050919050565b611d4081611897565b82525050565b6000611d528383611d37565b60208301905092915050565b6000602082019050919050565b6000611d7682611d0b565b611d808185611d16565b9350611d8b83611d27565b8060005b83811015611dbc578151611da38882611d46565b9750611dae83611d5e565b925050600181019050611d8f565b5085935050505092915050565b60006060820190508181036000830152611de38186611cad565b90508181036020830152611df78185611d6b565b90508181036040830152611e0b8184611d6b565b9050949350505050565b60008060408385031215611e2c57611e2b61188d565b5b6000611e3a858286016118b8565b9250506020611e4b858286016118b8565b9150509250929050565b611e5e81611c67565b82525050565b6000602082019050611e796000830184611e55565b92915050565b60006080820190508181036000830152611e99818761199b565b9050611ea860208301866119d4565b611eb560408301856119d4565b611ec260608301846119d4565b95945050505050565b600080600060608486031215611ee457611ee361188d565b5b6000611ef2868287016118b8565b9350506020611f03868287016118b8565b925050604084013567ffffffffffffffff811115611f2457611f23611892565b5b611f3086828701611b67565b9150509250925092565b611f4381611c67565b8114611f4e57600080fd5b50565b600081359050611f6081611f3a565b92915050565b600060208284031215611f7c57611f7b61188d565b5b6000611f8a84828501611f51565b91505092915050565b6000604082019050611fa860008301856119d4565b611fb560208301846119d4565b9392505050565b7f4e487b7100000000000000000000000000000000000000000000000000000000600052602260045260246000fd5b6000600282049050600182168061200357607f821691505b6020821081141561201757612016611fbc565b5b50919050565b7f4e487b7100000000000000000000000000000000000000000000000000000000600052601160045260246000fd5b600061205782611897565b915061206283611897565b9250827fffffffffffffffffffffffffffffffffffffffffffffffffffffffffffffffff038211156120975761209661201d565b5b828201905092915050565b600081905092915050565b50565b60006120bd6000836120a2565b91506120c8826120ad565b600082019050919050565b60006120de826120b0565b9150819050919050565b60006060820190506120fd60008301866119d4565b61210a6020830185611e55565b61211760408301846119d4565b949350505050565b7f4e487b7100000000000000000000000000000000000000000000000000000000600052603260045260246000fd5b600061215982611897565b91507fffffffffffffffffffffffffffffffffffffffffffffffffffffffffffffffff82141561218c5761218b61201d565b5b600182019050919050565b7f4f776e61626c653a2063616c6c6572206973206e6f7420746865206f776e6572600082015250565b60006121cd602083611946565b91506121d882612197565b602082019050919050565b600060208201905081810360008301526121fc816121c0565b9050919050565b7f4e487b7100000000000000000000000000000000000000000000000000000000600052602160045260246000fd5b600061223d82611897565b915061224883611897565b92508282101561225b5761225a61201d565b5b828203905092915050565b600060608201905061227b60008301866119d4565b61228860208301856119d4565b6122956040830184611e55565b949350505050565b60006060820190506122b260008301866119d4565b6122bf60208301856119d4565b6122cc60408301846119d4565b949350505050565b60006060820190506122e96000830186611e55565b6122f660208301856119d4565b61230360408301846119d4565b949350505050565b7f4f776e61626c653a206e6577206f776e657220697320746865207a65726f206160008201527f6464726573730000000000000000000000000000000000000000000000000000602082015250565b6000612367602683611946565b91506123728261230b565b604082019050919050565b600060208201905081810360008301526123968161235a565b9050919050565b7f796f75206d757374206265206f6e65206f662074686520646f6e61746f727300600082015250565b60006123d3601f83611946565b91506123de8261239d565b602082019050919050565b60006020820190508181036000830152612402816123c6565b905091905056fea264697066735822122072ff6f415d4f6339f820f424cd5bdbf03ec67e5a4f19a9845a8d7ff9e0443a8864736f6c63430008090033",
  "immutableReferences": {},
  "source": "// SPDX-License-Identifier: MIT\npragma solidity >=0.4.22 <0.9.0;\n\nimport \"@openzeppelin/contracts/utils/math/Math.sol\";\nimport \"@openzeppelin/contracts/access/Ownable.sol\";\n\n/// @title Contract for charity funding with ether donations\n/// @author Pengyang Zhou\n/// @notice Allows users to propose charity funding project and expense and get donations\n/// @dev EthDonation is contract manages charity projects. A project founder proposes a project,\n/// and adds expenses plans. A donator or investor donates to a project and approve expense according\n/// to their available donations.\ncontract EthDonation is Ownable{\n  \n  /// @dev Tracks total project count\n  uint public projectCount;\n\n  /// @dev Tracks mapping between project ID and project detail\n  mapping(uint => Project) public projects;\n\n  /// @dev ExpenseState is the two states of an expense\n  enum ExpenseState {\n    Pending,\n    Approved\n  }\n\n  /// @notice Emitted when a new donation is made to a project\n  /// @param donatorAddress Donator Address\n  /// @param amount Donation amount\n  /// @param projectId Project ID\n  event LogDonationMade(address donatorAddress, uint256 amount, uint projectId);\n\n  /// @notice Emitted when an expense is approved from a donator\n  /// @param projectId Project ID\n  /// @param expenseId Expense ID\n  /// @param approver Approver Address\n  event LogExpenseApproved(uint projectId, uint expenseId, address approver);\n\n  /// @notice Emitted when an expense reached to an approved state and allocation will be transferred\n  /// @param projectId Project ID\n  /// @param expenseId Expense ID\n  /// @param allocation Allocation amount\n  event LogExpenseAllocated(uint projectId, uint expenseId, uint256 allocation);\n\n  /// @notice Emitted when an expense reached to an approved state and but allocation transfer is failed\n  /// @param projectId Project ID\n  /// @param expenseId Expense ID\n  /// @param allocation Allocation amount\n  event LogExpenseAllocationFailure(uint projectId, uint expenseId, uint256 allocation);\n\n  /// @notice Emitted when a refund is made to a donator\n  /// @param projectId Project ID\n  /// @param donator Donator Address\n  /// @param amount Refund amount\n  event LogRefund(uint projectId, address donator, uint256 amount);\n\n  /// @notice Emitted when a refund to a donator is failed\n  /// @param projectId Project ID\n  /// @param donator Donator Address\n  /// @param amount Refund amount\n  event LogRefundFailure(uint projectId, address donator, uint256 amount);\n\n  constructor() {\n  }\n\n  /// @dev Donation tracks donations from a donator with total amount and available amount\n  /// to approve expenses. If an expense is approved, the available amount will be substracted\n  /// by the approved amount.\n  struct Donation {\n    uint256 total;\n    uint256 available;\n    bool refunded;\n  }\n\n  /// @dev Project is the information of the project to be funded by donators\n  /// amountFunded tracks the total amount funded and it is temperorally stored in the contract balances\n  /// amountAllocated tracks the amount that has been allocated to the founder.\n  struct Project {\n    address payable founder;\n    string title;\n    string description;\n    uint endTime;\n    uint256 amountFunded;\n    uint256 amountAllocated;\n    uint expenseCount;\n    address[] donators;\n    mapping(address => Donation) donations;\n    mapping(uint => Expense) expenses;\n  }\n\n  /// @dev Expense is the detail of a single expense item in a project\n  struct Expense {\n    string description;\n    uint256 allocation;\n    uint256 approvedAmount;\n    ExpenseState state;\n  }\n\n  /// @notice Creates a project to be donated with project title, description and the project end time\n  /// @param _title Project title\n  /// @param _description Project description\n  /// @param _endTime Project end time in unix seconds\n  /// @return Returns project ID\n  function createProject(string memory _title, string memory _description, uint _endTime) public returns(uint) {\n    require(_endTime > block.timestamp);\n    projectCount += 1;\n    Project storage proj = projects[projectCount];\n    proj.founder = payable(msg.sender);\n    proj.title= _title;\n    // TODO: project description could be optimized to use S3 along with more functionalities like adding images\n    proj.description= _description;\n    proj.endTime= _endTime;\n    return projectCount;\n  }\n\n  /// @notice Donates the amount of ETH from donator and temporally stored in the contract address\n  /// @param projectId Project ID\n  function donate(uint projectId) public payable {\n    require(msg.value > 0);\n    require(projects[projectId].endTime > block.timestamp);\n    Project storage proj = projects[projectId];\n    proj.amountFunded += msg.value;\n    Donation storage donation = proj.donations[msg.sender];\n    if (donation.total == 0) {\n      proj.donators.push(msg.sender);\n    }\n    donation.total += msg.value;\n    donation.available += msg.value;\n    emit LogDonationMade(msg.sender, msg.value, projectId);\n  }\n\n  /// @notice Refunds donations to the original donator if the project ends and there are their donations left\n  /// @param projectId Project ID\n  function refund(uint projectId) public {\n    require(projectId >= 1 && projectId <= projectCount);\n    // project should be ended\n    require(projects[projectId].endTime < block.timestamp);\n    // msg.sender should be one of the donator and has available amount\n    require(projects[projectId].donations[msg.sender].available > 0);\n\n    Project storage proj = projects[projectId];\n    uint256 amount = proj.donations[msg.sender].available;\n    Donation storage dona = proj.donations[msg.sender];\n    dona.available = 0;\n    dona.refunded = true;\n    (bool success, ) = msg.sender.call{value: amount}(\"\");\n    if (success) {\n      emit LogRefund(projectId, msg.sender, amount);\n    } else {\n      emit LogRefundFailure(projectId, msg.sender, amount);\n      dona.available = amount;\n      dona.refunded = false;\n    }\n  }\n\n  /// @notice Creates an expense for a project\n  /// @param projectId Project ID\n  /// @param allocation Expense allocation asked\n  /// @param description Expense description\n  /// @return Returns expense ID\n  function createExpense(uint projectId, uint256 allocation, string memory description) public returns(uint) {\n    require(projects[projectId].founder == msg.sender);\n    require(projectId >= 1 && projectId <= projectCount);\n    require(allocation > 0);\n\n    Project storage proj = projects[projectId];\n    uint expenseId = proj.expenseCount + 1;\n    Expense storage exps = proj.expenses[expenseId];\n    exps.description = description;\n    exps.allocation = allocation;\n    exps.state = ExpenseState.Pending;\n    proj.expenseCount += 1;\n    return expenseId;\n  }\n\n  /// @notice Gets expense count for a project\n  /// @param projectId Project ID\n  /// @return Returns expense count\n  function getExpenseCount(uint projectId) public view returns (uint) {\n    require(projectId >= 1 && projectId <= projectCount);\n    return projects[projectId].expenseCount;\n  }\n\n  /// @notice Gets an expense by expense ID and project ID\n  /// @param projectId Project ID\n  /// @param expenseId Expense ID\n  /// @return Returns expense detail with description, allocation, amount approved and state\n  function getExpense(uint projectId, uint expenseId) public view returns (string memory, uint256, uint256, uint) {\n    require(projectId >= 1 && projectId <= projectCount);\n    require(expenseId >= 1 && expenseId <= projects[projectId].expenseCount);\n    require(projects[projectId].expenses[expenseId].allocation > 0);\n\n    Expense storage exp = projects[projectId].expenses[expenseId];\n    return (exp.description, exp.allocation, exp.approvedAmount, uint(exp.state));\n  }\n\n  /// @notice Gets the donation a project of a caller\n  /// @param projectId Project ID\n  /// @return Returns the total donation amount and the available amount \n  function getMyDonation(uint projectId) public view returns (uint256, uint256) {\n    require(projectId >= 1 && projectId <= projectCount);\n    require(projects[projectId].donations[msg.sender].total > 0, \"you must be one of the donators\");\n    Donation memory dona = projects[projectId].donations[msg.sender];\n    return (dona.total, dona.available);\n  }\n\n  /// @notice Gets the donations a project\n  /// @param projectId Project ID\n  /// @return Returns a list of donators, a list of their total donation amounts, and a list of their the available amounts\n  function getDonations(uint projectId) public view returns (address[] memory, uint256[] memory, uint256[] memory){\n    require(projectId >= 1 && projectId <= projectCount);\n\n    Project storage proj = projects[projectId];\n    uint length = proj.donators.length;\n    address[] memory donators = new address[](length);\n    uint256[] memory allocations = new uint256[](length);\n    uint256[] memory availables = new uint256[](length);\n\n    for (uint i = 0; i < length; i++) {\n      address donator = proj.donators[i];\n      Donation memory dona = proj.donations[donator];\n      donators[i] = donator;\n      allocations[i] = dona.total;\n      availables[i] = dona.available;\n    }\n    return (donators, allocations, availables);\n  }\n\n  /// @notice Approves an expense of a project\n  /// @dev When the total approved amount is greater than or equal to the allocation for the proposed expense\n  /// the approved amount will be transferred to the project founder's address\n  function approveExpense(uint projectId, uint expenseId) public {\n    /// projectId should be valid\n    require(projectId >= 1 && projectId <= projectCount);\n    /// msg.sender should be one of the donator and has available amount\n    require(projects[projectId].donations[msg.sender].available > 0);\n    /// expenseId should be valid\n    require(expenseId >= 1 && expenseId <= projects[projectId].expenseCount);\n    /// expense should be in pending state\n    require(projects[projectId].expenses[expenseId].state == ExpenseState.Pending);\n\n    Project storage project = projects[projectId];\n    Expense storage expense = project.expenses[expenseId];\n    uint256 amountToApprove = Math.min(expense.allocation - expense.approvedAmount, project.donations[msg.sender].available);\n    expense.approvedAmount += amountToApprove;\n    project.donations[msg.sender].available -= amountToApprove;\n    emit LogExpenseApproved(projectId, expenseId, msg.sender);\n    if (expense.approvedAmount == expense.allocation) {  // expense allocation is filled, yay\n      expense.state = ExpenseState.Approved;\n      project.amountAllocated += expense.allocation;\n      (bool success, ) = project.founder.call{value:expense.allocation}(\"\");\n      if (success) {\n        emit LogExpenseAllocated(projectId, expenseId, expense.allocation);\n      } else {\n        emit LogExpenseAllocationFailure(projectId, expenseId, expense.allocation);\n        expense.state = ExpenseState.Pending;\n        project.amountAllocated -= expense.allocation;\n      }\n    }\n  }\n}\n",
  "sourcePath": "/Users/mie/Desktop/blockchain_bootcamp/project/blockchain-developer-bootcamp-final-project/contracts/EthDonation.sol",
  "compiler": {
    "name": "solc",
    "version": "0.8.9+commit.e5eed63a.Emscripten.clang"
  },
  "schemaVersion": "3.4.3",
  "updatedAt": "2021-11-29T07:37:21.750Z",
  "devdoc": {
    "author": "Pengyang Zhou",
    "details": "EthDonation is contract manages charity projects. A project founder proposes a project, and adds expenses plans. A donator or investor donates to a project and approve expense according to their available donations.",
    "events": {
      "LogDonationMade(address,uint256,uint256)": {
        "params": {
          "amount": "Donation amount",
          "donatorAddress": "Donator Address",
          "projectId": "Project ID"
        }
      },
      "LogExpenseAllocated(uint256,uint256,uint256)": {
        "params": {
          "allocation": "Allocation amount",
          "expenseId": "Expense ID",
          "projectId": "Project ID"
        }
      },
      "LogExpenseAllocationFailure(uint256,uint256,uint256)": {
        "params": {
          "allocation": "Allocation amount",
          "expenseId": "Expense ID",
          "projectId": "Project ID"
        }
      },
      "LogExpenseApproved(uint256,uint256,address)": {
        "params": {
          "approver": "Approver Address",
          "expenseId": "Expense ID",
          "projectId": "Project ID"
        }
      },
      "LogRefund(uint256,address,uint256)": {
        "params": {
          "amount": "Refund amount",
          "donator": "Donator Address",
          "projectId": "Project ID"
        }
      },
      "LogRefundFailure(uint256,address,uint256)": {
        "params": {
          "amount": "Refund amount",
          "donator": "Donator Address",
          "projectId": "Project ID"
        }
      }
    },
    "kind": "dev",
    "methods": {
      "approveExpense(uint256,uint256)": {
        "details": "When the total approved amount is greater than or equal to the allocation for the proposed expense the approved amount will be transferred to the project founder's address"
      },
      "createExpense(uint256,uint256,string)": {
        "params": {
          "allocation": "Expense allocation asked",
          "description": "Expense description",
          "projectId": "Project ID"
        },
        "returns": {
          "_0": "Returns expense ID"
        }
      },
      "createProject(string,string,uint256)": {
        "params": {
          "_description": "Project description",
          "_endTime": "Project end time in unix seconds",
          "_title": "Project title"
        },
        "returns": {
          "_0": "Returns project ID"
        }
      },
      "donate(uint256)": {
        "params": {
          "projectId": "Project ID"
        }
      },
      "getDonations(uint256)": {
        "params": {
          "projectId": "Project ID"
        },
        "returns": {
          "_0": "Returns a list of donators, a list of their total donation amounts, and a list of their the available amounts"
        }
      },
      "getExpense(uint256,uint256)": {
        "params": {
          "expenseId": "Expense ID",
          "projectId": "Project ID"
        },
        "returns": {
          "_0": "Returns expense detail with description, allocation, amount approved and state"
        }
      },
      "getExpenseCount(uint256)": {
        "params": {
          "projectId": "Project ID"
        },
        "returns": {
          "_0": "Returns expense count"
        }
      },
      "getMyDonation(uint256)": {
        "params": {
          "projectId": "Project ID"
        },
        "returns": {
          "_0": "Returns the total donation amount and the available amount "
        }
      },
      "owner()": {
        "details": "Returns the address of the current owner."
      },
      "refund(uint256)": {
        "params": {
          "projectId": "Project ID"
        }
      },
      "renounceOwnership()": {
        "details": "Leaves the contract without owner. It will not be possible to call `onlyOwner` functions anymore. Can only be called by the current owner. NOTE: Renouncing ownership will leave the contract without an owner, thereby removing any functionality that is only available to the owner."
      },
      "transferOwnership(address)": {
        "details": "Transfers ownership of the contract to a new account (`newOwner`). Can only be called by the current owner."
      }
    },
    "stateVariables": {
      "projectCount": {
        "details": "Tracks total project count"
      },
      "projects": {
        "details": "Tracks mapping between project ID and project detail"
      }
    },
    "title": "Contract for charity funding with ether donations",
    "version": 1
  },
  "userdoc": {
    "events": {
      "LogDonationMade(address,uint256,uint256)": {
        "notice": "Emitted when a new donation is made to a project"
      },
      "LogExpenseAllocated(uint256,uint256,uint256)": {
        "notice": "Emitted when an expense reached to an approved state and allocation will be transferred"
      },
      "LogExpenseAllocationFailure(uint256,uint256,uint256)": {
        "notice": "Emitted when an expense reached to an approved state and but allocation transfer is failed"
      },
      "LogExpenseApproved(uint256,uint256,address)": {
        "notice": "Emitted when an expense is approved from a donator"
      },
      "LogRefund(uint256,address,uint256)": {
        "notice": "Emitted when a refund is made to a donator"
      },
      "LogRefundFailure(uint256,address,uint256)": {
        "notice": "Emitted when a refund to a donator is failed"
      }
    },
    "kind": "user",
    "methods": {
      "approveExpense(uint256,uint256)": {
        "notice": "Approves an expense of a project"
      },
      "createExpense(uint256,uint256,string)": {
        "notice": "Creates an expense for a project"
      },
      "createProject(string,string,uint256)": {
        "notice": "Creates a project to be donated with project title, description and the project end time"
      },
      "donate(uint256)": {
        "notice": "Donates the amount of ETH from donator and temporally stored in the contract address"
      },
      "getDonations(uint256)": {
        "notice": "Gets the donations a project"
      },
      "getExpense(uint256,uint256)": {
        "notice": "Gets an expense by expense ID and project ID"
      },
      "getExpenseCount(uint256)": {
        "notice": "Gets expense count for a project"
      },
      "getMyDonation(uint256)": {
        "notice": "Gets the donation a project of a caller"
      },
      "refund(uint256)": {
        "notice": "Refunds donations to the original donator if the project ends and there are their donations left"
      }
    },
    "notice": "Allows users to propose charity funding project and expense and get donations",
    "version": 1
  }
}